:1000000010C02AC029C028C027C026C025C024C0CF
:1000100023C022C021C020C01FC01EC01DC01CC0E4
:100020001BC011241FBECFE5D1E0DEBFCDBF10E065
:10003000A0E6B0E0E0E0F5E002C005900D92A63742
:10004000B107D9F710E0A6E7B0E001C01D92AF38C4
:10005000B107E1F7E2D152C2D3CFD39ADB98D2985D
:1000600084E690E00197F1F706C08BB38AB389B3B9
:10007000847080938900809189008823B1F7D39898
:1000800088E290E00197F1F7D39ADB980895D39A2C
:10009000DB9888E290E0FC013197F1F7D29ADA9888
:1000A000FC013197F1F7D3980197F1F7D2980895B1
:1000B00090E028E230E0D39ADB9880FF02C0D2982B
:1000C00002C0D29ADA98F9013197F1F7D398F90181
:1000D0003197F1F79F5F983011F08695ECCF089536
:1000E000EF92FF920F931F93E22E2AE330E03093BA
:1000F0008400209383005AB350938A0091B121E089
:1001000030E0082E02C0220F331F0A94E2F7922B30
:1001100091B9209525232ABB606866B94295440FA2
:10012000440F407C482B47B91C9AFF2400E010E0A4
:10013000C801B70124E130E040E050E0A4D12AE05A
:1001400030E040E050E0B8D1C9010197F1F71F91CC
:100150000F91FF90EF900895369A3699FECF88233D
:1001600079F084B1829586958695837090E025B16B
:1001700030E0220F331F220F331F282B392B03C0EF
:1001800085B1282F30E0C9010895E0918300F091F6
:10019000840080918A00808337980895DF92EF92DF
:1001A000FF920F931F93DF93CF9300D000D0CDB772
:1001B000DEB710928B0010928C0010928D0080910F
:1001C00087009091880090937800809377008091C9
:1001D0006000813091F480E180938E0088EE93E09E
:1001E00090937E0080937D0084E690E09093800061
:1001F00080937F008AE090E011C081E180938E00BF
:1002000084EF91E090937E0080937D0082E390E004
:100210009093800080937F0085E090E0909382002F
:1002200080938100209177003091780080917D004B
:1002300090917E0028173907A0F080917700909167
:10024000780020917D0030917E00821B930B90936B
:1002500078008093770080918B008F5F80938B0074
:10026000E1CF209177003091780080917F009091CC
:10027000800028173907A0F08091770090917800CE
:1002800020917F0030918000821B930B9093780027
:100290008093770080918C008F5F80938C00E1CFFA
:1002A00020917700309178008091810090918200B8
:1002B00028173907A0F0809177009091780020915D
:1002C000810030918200821B930B90937800809381
:1002D000770080918D008F5F80938D00E1CF8091BA
:1002E0008B00882319F48AE080938B00D090610002
:1002F00080918B0090918C0020918D0030918E0028
:1003000089839A832B833C83D398D29888E290E0A8
:100310000197F1F7D29ADA9880ECCADE9EDE8E0160
:100320000F5F1F4F55E0E52EF12CEC0EFD1ED8019E
:10033000ED918D01F0E0EE59FF4F80818068808360
:10034000B7DE8BDE0E151F0591F7A1DED398D2988C
:1003500088E290E00197F1F7D29ADA988D2D8857CC
:10036000A7DE7BDE94DE0F900F900F900F90CF9161
:10037000DF911F910F91FF90EF90DF900895CF9341
:10038000DF9310927C0010927B0010928500C0EDEC
:10039000D7E02FC080916000813011F487E001C068
:1003A00080E066E04EEF28E29BDE81E0D5DEE09162
:1003B0008300F091840020918A00208337989093E5
:1003C00088008093870080917B0090917C00209131
:1003D000870030918800280F391F30937C002093CC
:1003E0007B00CE010197F1F7809185008F5F8093AC
:1003F000850080918500803168F280917B0090912A
:100400007C0064E0969587956A95E1F79093880063
:1004100080938700DF91CF9108951F93CF93DF934F
:1004200014BE88E10FB6F89481BD11BC0FBE92E0F6
:100430009093610081BD8FE081BD11E0C0EDD7E0F8
:10044000A8959DDFABDE809176008F5F809376006C
:1004500080917600863040F01092760080916000A6
:10046000912F981B9093600020E0CE010197F1F747
:100470002F5F2F3FD1F720E0CE010197F1F72F5FDB
:10048000253FD1F7DDCFFF27EE27BB27AA2760FF47
:1004900004C0A20FB31FE41FF51F220F331F441F18
:1004A000551F969587957795679589F700977607F5
:1004B00071F7CF01BD010895A1E21A2EAA1BBB1B43
:1004C000FD010DC0AA1FBB1FEE1FFF1FA217B30720
:1004D000E407F50720F0A21BB30BE40BF50B661F36
:1004E000771F881F991F1A9469F7609570958095FA
:1004F00090959B01AC01BD01CF010895F894FFCF09
:1005000001023F065B4F666D7D077F6F00406339D8
:060510000108771C000049
:00000001FF
