:1000000010C028C027C026C025C024C023C022C0DD
:1000100021C020C01FC08CC21DC01CC01BC01AC084
:1000200019C011241FBECFEDCDBF10E0A0E6B0E097
:10003000E0EFF5E002C005900D92A637B107D9F7C1
:1000400010E0A6E7B0E001C01D92A239B107E1F7C8
:100050004DD2CCC2D5CFD39ADB98D29884E690E02B
:100060000197F1F706C08BB38AB389B3847080938C
:100070008C0080918C008823B1F7D39888E290E0BF
:100080000197F1F7D39ADB980895D39ADB9888E229
:1000900090E0FC013197F1F7D29ADA98FC013197A0
:1000A000F1F7D3980197F1F7D298089590E028E2FC
:1000B00030E0D39ADB9880FF02C0D29802C0D29A77
:1000C000DA98F9013197F1F7D398F9013197F1F7FF
:1000D0009F5F983011F08695ECCF0895EF92FF92D4
:1000E0000F931F93E22E2AE330E030938600209393
:1000F00085005AB350938D0091B121E030E0082E75
:1001000002C0220F331F0A94E2F7922B91B9209577
:1001100025232ABB606866B94295440F440F407C92
:10012000482B47B91C9AFF2400E010E0C801B70132
:1001300024E130E040E050E01ED22AE030E040E030
:1001400050E032D2C9010197F1F71F910F91FF9052
:10015000EF900895369A3699FECF882379F084B1CE
:10016000829586958695837090E025B130E0220FC8
:10017000331F220F331F282B392B03C085B1282FA3
:1001800030E0C9010895E0918500F09186008091EA
:100190008D00808337980895DF92EF92FF920F933E
:1001A0001F93DF93CF9300D000D0CDB7DEB710926E
:1001B0008E0010928F00109290008091600081302C
:1001C000D1F480E1809391008091790090917A0040
:1001D000909378008093770088EE93E090937F006F
:1001E00080937E0084E690E090938100809380006D
:1001F0008AE090E019C081E18093910080918900AC
:1002000090918A00909378008093770084EF91E03A
:1002100090937F0080937E0082E390E09093810032
:100220008093800085E090E090938300809382002B
:10023000209177003091780080917E0090917F002E
:1002400028173907A0F080917700909178002091CD
:100250007E0030917F00821B930B909378008093F7
:10026000770080918E008F5F80938E00E1CF209188
:10027000770030917800809180009091810028175C
:100280003907A0F08091770090917800209180004C
:1002900030918100821B930B9093780080937700BC
:1002A00080918F008F5F80938F00E1CF2091770046
:1002B000309178008091820090918300281739074F
:1002C000A0F0809177009091780020918200309189
:1002D0008300821B930B909378008093770080912A
:1002E00090008F5F80939000E1CF80918E008823F3
:1002F00019F48AE080938E00D090610080918E0086
:1003000090918F00209190003091910089839A8381
:100310002B833C83D398D29888E290E00197F1F741
:10032000D29ADA9880ECC2DE96DE8E010F5F1F4F04
:1003300055E0E52EF12CEC0EFD1ED801ED918D015E
:10034000F0E0EE59FF4F808180688083AFDE83DE6E
:100350000E151F0591F799DED398D29888E290E0A8
:100360000197F1F7D29ADA988D2D88579FDE73DEC8
:100370008CDE0F900F900F900F90CF91DF911F9117
:100380000F91FF90EF90DF900895809176008F5F3E
:100390008093760080917B008F5F80937B008091BB
:1003A00076008F3028F01092760081E080938400F0
:1003B00080917B008A3540F010927B009091600024
:1003C00081E0891B809360000895CF93DF93809133
:1003D0006000813009F044C010927D0010927C00D2
:1003E00010928B00C0EDD7E029C087E066E04EEFA9
:1003F00028E274DE81E0AEDEE0918500F0918600B7
:1004000020918D002083379890937A008093790013
:1004100020917C0030917D008091790090917A004C
:10042000820F931F90937D0080937C00CE010197F3
:10043000F1F780918B008F5F80938B0080918B0010
:10044000803198F280917C0090917D0074E09695C7
:1004500087957A95E1F790937A008093790043C06D
:1004600010927D0010927C0010928700C0EDD7E0C2
:1004700029C080E066E04EEF28E230DE81E06ADEEF
:10048000E0918500F091860020918D0020833798BF
:1004900090938A008093890020917C0030917D00A8
:1004A0008091890090918A00820F931F90937D0024
:1004B00080937C00CE010197F1F7809187008F5FD8
:1004C0008093870080918700803198F280917C0032
:1004D00090917D0064E0969587956A95E1F79093F9
:1004E0008A0080938900DF91CF91089514BE88E13E
:1004F0000FB6F89481BD11BC0FBE82E080936100FD
:1005000083B7887F83BF83B7856083BF789489B7BB
:10051000816089BF88E181BD8FE081BD80918400C9
:100520008130E1F7A895109284004FDF35DEF6CFD9
:100530001F920F920FB60F9211242F933F934F9358
:100540005F936F937F938F939F93AF93BF93EF933B
:10055000FF931BDFFF91EF91BF91AF919F918F911F
:100560007F916F915F914F913F912F910F900FBEAF
:100570000F901F901895FF27EE27BB27AA2760FF33
:1005800004C0A20FB31FE41FF51F220F331F441F27
:10059000551F969587957795679589F70097760704
:1005A00071F7CF01BD010895A1E21A2EAA1BBB1B52
:1005B000FD010DC0AA1FBB1FEE1FFF1FA217B3072F
:1005C000E407F50720F0A21BB30BE40BF50B661F45
:1005D000771F881F991F1A9469F760957095809509
:1005E00090959B01AC01BD01CF010895F894FFCF18
:1005F00001023F065B4F666D7D077F6F00406339E8
:060600000108771C000058
:00000001FF
