:1000000009C021C020C01FC01EC01DC01CC01BC015
:100010001AC019C011241FBECFE9CDBF10E0A0E661
:10002000B0E0EAEEF3E002C005900D92A437B1070C
:10003000D9F710E0A4E7B0E001C01D92A038B107E5
:10004000E1F7ECD0D0C1DCCFBA9AC298B99880E37E
:1000500090E00197F1F706C088B387B386B382704A
:1000600080937A0080917A008823B1F7BA9880E370
:1000700090E00197F1F7BA9AC2980895BA9AC29897
:1000800080E390E0FC013197F1F7B99AC198FC0147
:100090003197F1F7BA980197F1F7B998089590E080
:1000A00020E330E0BA9AC29880FF02C0B99802C03B
:1000B000B99AC198F9013197F1F7BA98F9013197D6
:1000C000F1F79F5F983011F08695ECCF0895382FA7
:1000D000522F80937900833039F0882311F485E022
:1000E00001C0880F8093790087E390E090937700B8
:1000F0008093760027B320937B0081E090E000900E
:10010000790002C0880F991F0A94E2F78095822334
:1001100087BB606866B930624295440F440F407CEB
:10012000432B47B9652F70E080E090E028E130E094
:1001300040E050E01DD12AE030E040E050E031D115
:10014000C9010197F1F70895369A3699FECF8823B1
:1001500079F084B1829586958695837090E025B17B
:1001600030E0220F331F220F331F282B392B03C0FF
:1001700085B1282F30E0C9010895E0917600F09113
:10018000770080917B0080833798089510927C00DF
:1001900010927D0010927E00809174009091750005
:1001A0008059914080F080917C008F5F80937C002B
:1001B00080917400909175008059914090937500E2
:1001C00080937400E9CF80917400909175008897B6
:1001D00078F080917D008F5F80937D008091740026
:1001E0009091750088979093750080937400EBCF81
:1001F0008091740090917500049778F080917E0052
:100200008F5F80937E0080917400909175000497B9
:100210009093750080937400EBCF08955F926F9276
:100220007F928F929F92AF92BF92CF92DF92EF9286
:10023000FF920F931F93DF93CF9300D000D0CDB7E1
:10024000DEB714BE88E10FB6F89481BD11BC0FBEB5
:10025000A1E15A2EF0E1EF2EE0E3CE2ED12C3E01AB
:100260000894611C711C75E0872E912C8C0E9D1ECC
:1002700060E6A62E69E0B62EBB9886B390E053E008
:10028000969587955A95E1F781708093780082E082
:1002900066E041E028E21BDF81E056DFE091760076
:1002A000F091770020917B00208337989093750020
:1002B0008093740050927F0080917800882359F4D5
:1002C000E0927F00809174009091750084369105D2
:1002D00010F4B89AC09A5ADFF090780080917C00B0
:1002E00090917D0020917E0030917F0089839A83D8
:1002F0002B833C83BA98B998C6010197F1F7B99A54
:10030000C19880ECCCDEA0DE8301D801EC91B1E095
:10031000FB1631F4F0E0E05AFF4F8081806805C0A1
:10032000F0E0E05AFF4F80818F778083D801ED9114
:100330008D01F0E0E05AFF4F8081B1DE85DE0815C7
:10034000190519F79BDEBA98B998C6010197F1F71C
:10035000B99AC19889E8A3DE77DE90DE20E0C50176
:100360000197F1F72F5F283CD1F7B89AC09884CF56
:10037000FF27EE27BB27AA2760FF04C0A20FB31FE9
:10038000E41FF51F220F331F441F551F96958795B5
:100390007795679589F70097760771F7CF01BD01CB
:1003A0000895A1E21A2EAA1BBB1BFD010DC0AA1FB6
:1003B000BB1FEE1FFF1FA217B307E407F50720F0CE
:1003C000A21BB30BE40BF50B661F771F881F991F49
:1003D0001A9469F760957095809590959B01AC0192
:0A03E000BD01CF010895F894FFCF8E
:1003EA003F065B4F666D7D077F6F004063390108EA
:0403FA005C1C000087
:00000001FF
